:100000000C9434000C9453000C9451000C94510047
:100010000C9451000C9451000C9451000C9451001C
:100020000C9451000C9451000C9451000C9451000C
:100030000C9451000C9451000C9451000C945100FC
:100040000C9451000C9451000C9451000C945100EC
:100050000C9451000C9451000C9451000C945100DC
:100060000C9451000C94510011241FBECFEFD8E026
:10007000DEBFCDBF11E0A0E0B1E0E6E1F2E002C0FA
:1000800005900D92A430B107D9F721E0A4E0B1E0CA
:1000900001C01D92A630B207E1F70E9471000C94D6
:1000A00009010C9400001F920F920FB60F921124B9
:1000B0008F939F93809104019091050101969093F5
:1000C0000501809304019F918F910F900FBE0F90B7
:1000D0001F901895E89AE9E6F0E0808183608083BC
:1000E00008950E948F000E946A00109205011092EC
:1000F000040178942FEF83ED90E3215080409040ED
:10010000E1F700C00000F89480910401909105018E
:100110000E94BA0080E091E00E94A700E6CF109212
:10012000C50087E68093C400E0ECF0E080818D7F1D
:10013000808388E18093C10086E08093C2000895A7
:100140009091C00095FFFCCF8093C60008950F9357
:100150001F93CF938C01C0E0F801EC0FF11D80815B
:10016000882321F00E94A000CF5FF6CFCF911F918E
:100170000F9108950F931F93CF93DF938C0160E14C
:1001800077E20E94F50080E3860F0E94A000C8017C
:1001900068EE73E00E94F500CB01CAE0D0E0BE013A
:1001A0000E94F500805D0E94A000C80164E670E036
:1001B0000E94F500CB01BE010E94F500805D0E9407
:1001C000A000C801BE010E94F500182FCB01BE019E
:1001D0000E94F500805D0E94A00080E3810FDF9106
:1001E000CF911F910F910C94A000AA1BBB1B51E152
:1001F00007C0AA1FBB1FA617B70710F0A61BB70B97
:10020000881F991F5A95A9F780959095BC01CD013B
:060210000895F894FFCFF1
:040216000D0A0000CD
:00000001FF
